:020000040000FA
:1000000000800010310000007D7600007D76000049
:100010007D7600007D7600007D7600007D76000014
:100020007D7600007D7600007D76000031010000C5
:1000300000F002F800F06CF80AA090E8000C82448E
:100040008344AAF10107DA4501D100F061F8AFF26B
:10005000090EBAE80F0013F0010F18BFFB1A43F0A6
:10006000010318478CD80000BCD800000A444FF0A8
:10007000000C10F8013B13F0070408BF10F8014B07
:100080001D1108BF10F8015B641E05D010F8016B4C
:10009000641E01F8016BF9D113F0080F1EBF10F8B0
:1000A000014BAD1C0C1B09D16D1E58BF01F801CBD3
:1000B000FAD505E014F8016B01F8016B6D1EF9D556
:1000C0009142D6D370470000103A24BF78C878C157
:1000D000FAD8520724BF30C830C144BF04680C604E
:1000E000704700000023002400250026103A28BF96
:1000F00078C1FBD8520728BF30C148BF0B6070479A
:100100001FB59DE803000AF081FB1FBD10B510BDAF
:100110000AF010FC1146FFF7F3FF00F0FCF80AF0BC
:100120002EFC03B4FFF7F2FF03BC07F0DAFE000079
:10013000052828BF70474FEA80007844D0F802F0C5
:10014000990100005F010000FD0100001D02000098
:100150003D0200004FF0010080F3148800DF0A4CDC
:100160004FF00105257077460AF046F9BE46074E66
:100170003668074C2660D6F800D001BC05490860F7
:10018000BDE8F00F704700BFF70100100802001033
:10019000000200101C0200104FF0080282F31188C8
:1001A00000B50AF029F95DF804EB2DE9F00F0E49CE
:1001B000086801B40D4A1268C2F800D00C4C0D4D0D
:1001C0002E7826700C4E3668084C2660D6F800D083
:1001D00001BC086000280CBF0022082282F31188AD
:1001E000BDE8F00F704700BF1C02001000020010B5
:1001F000EC010010ED01001008020010064908682B
:1002000000F101004FF0080282F31188002808BFB6
:1002100070470860704700BF1C020010064908685C
:1002200000281CBF01380860002818BF70474FF035
:10023000000282F3118870471C0200104FF000008A
:1002400080F3148870474FF0010080F314887047E2
:1002500088476FF0FF0008F0E5FE0000002400BFB3
:100260007448006840F002007349C1F863004FF021
:1002700002007249086013E00A2009F091F801F0C9
:1002800081F9601C84B2322C03D102206C490860D1
:1002900006E0642C04D10220684908604FF0000495
:1002A000EAE700BF01F019FA03E001F057F901F0A5
:1002B0005AFBFAE700BF02F0DDFE01E004F025FE84
:1002C000FCE700BF00F0A2FD05E001F051F900F0ED
:1002D00030FE5C490870F8E7002440F205115A48E6
:1002E0000AF07EF900BF15E0002240F205115648E1
:1002F00000F052F984B2A4F57F40FF380AD02146BD
:10030000514800F09DF980B2041E03DD21464E489D
:1003100000F022FCE8E708B50020009007F0B0F9F3
:1003200007F07AF907F098F900F055FD00F089FF21
:1003300001F0DEF806F0A6FC01F01EFE09F0D6F989
:100340006946102007F006FF4049086069460B2007
:1003500007F000FF3E490860002008F0F9FB3D4926
:100360000860002008F0F4FB3B490860002008F01A
:10037000EFFB3A4908601021394808F07EF9394905
:1003800008601021384808F078F9384908600020E2
:1003900008F0DEFB36490860002008F0D9FB35493B
:1003A0000860002008F0D4FB3349086069460D203E
:1003B00007F0D0FE31490860002008F0C9FB304941
:1003C0000860002008F0C4FB2E49086069460F2031
:1003D00007F0C0FE2C49086069460A2007F0BAFE03
:1003E0002A49086014232A4A0021AFF28F1008F02E
:1003F00078FD1523274A0021AFF2391008F071FD6E
:100400001923254A0021AFF2651008F06AFD172371
:10041000224A0021AFF23F1008F063FD1823204A62
:100420000021AFF26F1008F05CFD09F022FA002005
:1004300008BD000063C0092000C009207BC009205E
:100440007FC0092010010010D4150010CC0000104E
:10045000D0000010D400001004010010D8000010DB
:1004600054150010DC00001094150010E00000107E
:10047000E4000010E8000010EC000010F000001094
:10048000F4000010F8000010FC0000100001001043
:1004900030050010500B0010500F001040080010E5
:1004A000501500100146FF2008704870881C7047E6
:1004B00010B501460024002300220C4600BF04E0D2
:1004C000E05C104482B2581C83B24878401C9842C9
:1004D000F6DCD04382B2D2B24878401C225448782D
:1004E000001D10BD70B501464878801ECE1C345CDE
:1004F0000D460022002300BF04E0E85C104482B2F5
:10050000581C83B24878401C9842F6DCD04382B233
:10051000D2B2944201D1012070BD0020FCE72DE948
:10052000F04106460F46154600243C88022C08DAA6
:10053000FF2D04D12046611C8CB2355429E00024E3
:1005400027E0032C08DAFE2D04D12046611C8CB272
:1005500035541EE000241CE0052C04D22046611C0A
:100560008CB2355415E02046611C8CB2355406F12E
:10057000020898F80100001DA04209D13C804046C5
:10058000FFF7B0FF10B10020BDE8F0810120FBE7CC
:1005900000BF3C800220F7E7F8B505460E46174637
:1005A00000240020009000BF08F0ACFFF94908606B
:1005B00000F015FB044608F0A5FFF6490968401A4B
:1005C000642801D900200090224669462846FFF79A
:1005D000A6FFC0B204460228E6D0012C02D14FF695
:1005E000FF70F8BDBDF80000FBE770B505460C468E
:1005F000287810F0400F07D00120E74908702088C4
:1006000040F04000208006E00020E3490870208888
:1006100020F040002080287810F0200F07D0012023
:1006200000F072FD208840F02000208006E00020CD
:1006300000F06AFD208820F020002080002070BD9E
:100640002DE9F84F82460024002500200090002765
:10065000002680460AF102042546A07819287DD29A
:10066000DFE800F07C0D68357C7C7C7C1826348CBF
:10067000C5FBFAF9F8F77CF6F5FCF3F2F100A07887
:1006800040F08000A870022068702846FFF710FF35
:100690000090FCE1012000F037FDA07840F08000E0
:1006A000A870022068702846FFF702FF0090EEE174
:1006B000002000F029FDA07840F08000A870022002
:1006C00068702846FFF7F4FE0090E0E100BF04F1F7
:1006D00003086078C01EC0F34F073E460CE0700070
:1006E000401EE11C095CE01C10F8160001EB002024
:1006F00028F81600701E86B2002EF0DCE078A8F80C
:100700000000A0780A2805D1781C81B2E01C05F011
:100710007AFE04E0781C81B2E01C05F01BFEA07894
:1007200040F08000A870022068702846FFF7C0FEE5
:100730000090ACE1002610E0E21C731C12F803C02C
:10074000B31CD25C0CEB0221E21C925D501C4FF4F6
:10075000C07200F0A4FCF01C86B200E096E1607864
:10076000801EB042E8DCA07840F08000A870022033
:1007700068702846FFF79CFE009088E14FF0000962
:100780006078092800D282E104F10309A17AA9F86E
:100790000C10617AA9F80A10207AA9F80800A1794A
:1007A000E07901EB0020A9F806006079A9F80400BF
:1007B0002079A9F80200E078A9F8000001F0A5FF6F
:1007C000E078022101F000FC744908800722E11C56
:1007D0007248008801F0A8FDA07840F08000A87061
:1007E000022068702846FFF763FE00904FE104F195
:1007F00003086078C01EC0F34F073E460CE070004F
:10080000401EE11C095CE01C10F8160001EB002002
:1008100028F81600701E86B2002EF0DCE078A8F8EA
:100820000000781C82B2E11C5C48008801F07CFD6D
:10083000A07840F08000A870022068702846FFF77A
:1008400037FE009023E109E1F8E0A9E006E050E07E
:100850004EE08FE080E071E028E03AE004F1030828
:100860006078801EC0F34F0700260CE0E01C10F8F3
:1008700016207000401CE11C085C02EB002028F8E8
:100880001600701C86B2BE42F0DB3A46E11C4348BB
:10089000008801F049FDA07840F08000A870022097
:1008A00068702846FFF704FE0090F0E03B4800889F
:1008B00001F0D1FE4FF6FF7038490880A07840F073
:1008C0008000A870022068702846FFF7F1FD0090B4
:1008D000DDE02179E07805F01FFDA07840F0800090
:1008E000A870022068702846FFF7E2FD0090CEE075
:1008F000CDE004F10309E178207901EB002000B29A
:10090000A9F800006179A07901EB002000B2A9F8F4
:100910000200E179207A01EB002000B2A9F804007E
:10092000484605F0DAFCA07840F08000A87002206C
:1009300068702846FFF7BCFD0090A8E0012016492A
:100940000870A07840F08000A870022068702846E7
:10095000FFF7AEFD00909AE000200F490870A078E4
:1009600040F08000A870022068702846FFF7A0FDC4
:1009700000908CE005F10309484601F0EAF9A078FF
:1009800040F08000A870142068702846FFF790FDA2
:1009900000907CE008010010110100100C01001013
:1009A00004F103086078801EC0F34F0700260CE0B6
:1009B000E01C10F816207000401CE11C085C02EBE3
:1009C000002028F81600701C86B2BE42F0DB04F14D
:1009D000030B04F183092C21484609F0DFFD494649
:1009E000584605F0CEFA4946584605F044FD4946BA
:1009F000584601F0EFF94946584605F0BAFB49461A
:100A00005846FFF7F2FD4946584600F01DFB002608
:100A100007E006F18000E11C095CE81C8155701CB0
:100A200086B22C2EF5D3A07840F08000A8702E203E
:100A300068702846FFF73CFD009028E005F10309A7
:100A4000484600F0B7FDA07840F08000A870022072
:100A500068702846FFF72CFD009018E005F10308A8
:100A600005F1050B05F11109484601F09AF95946BF
:100A7000404600F0FDFAA07840F08000A8701620F3
:100A800068702846FFF714FD009000E000BF00BF2B
:100A90000098BDE8F88F000070B5002400260025FE
:100AA00008F03CFECF48846814F0010F02D008F033
:100AB00043FE70BDC4F34204012C06D0022C0AD0C0
:100AC000032C07D0062C1BD106E0C748006808F0AD
:100AD00006F916E000BF00BFC2484069C5B20BE08E
:100AE000C0480068C6B2A6F58071C048006807F02B
:100AF000E9FEBC484069C5B215F0010FF0D100E035
:100B000000BF00BF08F018FE00BFD2E710B5832079
:100B1000B449C8600724FE2088622046E11704EB30
:100B200011610912AF4A5160E11704EB116109121A
:100B3000A4EB0121116003201146C860C720886022
:100B4000072048600A22AFF2AF01152006F07BFEB5
:100B5000152006F073FF10BDF8B506460C460025BB
:100B600000270020009006B10CB90020F8BD6A46AD
:100B700000219F48006807F094FB00BF05E06A462B
:100B800000219948006808F059F89648406910F02B
:100B9000200FF4D005F11000A04201DD274602E04D
:100BA00005F1100087B204E0705D8E490860681C92
:100BB00085B2BD42F8DBA542E0DB05E06A460021D4
:100BC0008948006808F03AF88648406910F0200F1C
:100BD000F4D08748006807F01CFC2046C6E738B50B
:100BE0000020009000246A4600218048006807F039
:100BF00001FE04469DF8000008B1FF2038BDE0B2B8
:100C0000FCE770B500240026002508F087FD794830
:100C1000846814F0010F02D008F08EFD70BDC4F39B
:100C20004204012C06D0022C0AD0032C07D0062C3B
:100C30001BD106E07048006808F051F816E000BFCC
:100C400000BF6C484069C5B20BE06A480068C6B294
:100C5000A6F580716948006807F034FE6548406970
:100C6000C5B215F0010FF0D100E000BF00BF08F0E1
:100C700063FD00BFD2E7F8B506460C460025002705
:100C80000020009006B10CB90020F8BD00BF05E0BF
:100C90006A4600215848006807F0D0FF554840696F
:100CA00010F0200FF4D005F11000A04201DD27461E
:100CB00002E005F1100087B204E0705D4D49086064
:100CC000681C85B2BD42F8DBA542E0DB05E06A4660
:100CD00000214948006807F0B1FF4648406910F01C
:100CE000200FF4D02046D0E738B500200090002433
:100CF0006A4600214148006807F07CFD04469DF8E3
:100D0000000008B1FF2038BDE0B2FCE770B5054631
:100D10000024DDB1012D04D0022D18D0032D32D1D5
:100D20001CE03448406900F0400406E0012008F06F
:100D300037FB3048406900F04004002CF6D080209A
:100D40002F49C86101202F4908601DE000BF8020A5
:100D50002B49886101202C49086015E0254840692D
:100D600000F0400406E0012008F01AFB2148406929
:100D700000F04004002CF6D0802021498861012039
:100D80002149086000E000BF00BF70BD10B583209E
:100D90001849C860002048600220086095208862D9
:100DA0000320C860C720886007204860802014495D
:100DB0000860012001F1010108604FF00000FFF719
:100DC000A5FF0A22AFF2C511182006F03CFD18203D
:100DD00006F034FE10BD10B5FFF7D8FFFFF796FE02
:100DE00010BD000000C00040D4000010DC00001066
:100DF000CC00001000C00940D8000010E000001036
:100E000000C009201DC0092019C009204FF6FF703D
:100E1000FE4988814FF0FF30088048808880C88074
:100E20000146FA480181418170470146FF20087060
:100E30004870881C704710B501460024002300222A
:100E40000C4600BF04E0E05C104482B2581C83B240
:100E50004878401C9842F6DCD04382B2D2B248783F
:100E6000401C22544878001D10BD70B501464878DA
:100E7000801ECE1C345C0D460022002300BF04E01F
:100E8000E85C1044C2B2581C83B24878401C9842B7
:100E9000F6DCD043C2B200BF944201D1012070BD44
:100EA0000020FCE72DE9F04105460F4616460024D8
:100EB0003C88022C08DAFF2E04D12046611C8CB23B
:100EC0002E541EE000241CE0052C04D82046611C92
:100ED0008CB22E5415E02046611C8CB22E5405F1C4
:100EE000020898F80100C01CA04209D13C8040468D
:100EF000FFF7BBFF10B10020BDE8F0810120FBE748
:100F000000BF3C800220F7E7F8B505460E461746BD
:100F100000240020009000BFFFF7E6FE04462246B2
:100F200069462846FFF7BEFF04460228F4D0002099
:100F3000F8BD2DE9FC4100240027002500260020F3
:100F40000190B348007808B301AA0021B1480068B5
:100F500007F0A7F9B0480078A0B10020FFF7D6FE4F
:100F6000AE48FFF762FF0446FE2020700520A07007
:100F7000022060702046FFF75EFF07463946A7480B
:100F8000FFF779FEA348006807F043FA00BF9F48C7
:100F90000C309E4B002280210090A14805F062FB9E
:100FA00000B2064610F1020FF1D0002E44DD01AA76
:100FB00000219848006807F074F9974800780028E5
:100FC00032D00020FFF7A2FE00252AE09348FFF769
:100FD0002CFF0446681C20700420A070072060705D
:100FE0001E20E0708E4810F81510217130F81500A1
:100FF000010A617105EB6600894911F81010A171B1
:1010000005EB6600864931F81000010AE1712046BF
:10101000FFF711FF074639468048FFF72CFE681C92
:1010200085B2B5EB660FD1DB7A48006807F0F1F9BD
:1010300001207749087003E0701C01D174490870E1
:1010400073480078BDE8FC81024670488089C883F7
:101050006E48008808846D4843884B8483888B845D
:10106000C388CB8403890B8543894B850120704756
:10107000024666488089108064480088088063487A
:10108000408848806148808888806048C088C880DF
:101090005E4803890B8143894B81012070472DE90C
:1010A000F84307460D4616460024A046002000904F
:1010B0005A48FFF7BAFE04466A46002155480068C0
:1010C00007F0EFF854480078B8B10020FFF71EFE93
:1010D00027700320A070072060701E20E07025712B
:1010E000290A6171A671310AE1712046FFF7A3FE5A
:1010F000804641464948FFF7BEFD4648006807F074
:1011000088F90020BDE8F883F8B5054600240026DC
:101110000020009040480078854201D10020F8BDB1
:101120006A4600213B48006807F0BBF8002D4BD011
:101130000020FFF7EBFD3948FFF777FE0446FE205D
:1011400020700320A070042060701820E07001213E
:1011500021712046FFF76FFE064631462F48FFF704
:101160008AFD2E48FFF761FE0446FE202070032012
:10117000A070072060701A20E07000212171617159
:101180001821A171E1712046FFF755FE0646314650
:101190002248FFF770FD2148FFF747FE0446FE2076
:1011A00020700320A070052060703020E0702021A6
:1011B0002171002161712046FFF73DFE0646314650
:1011C0001648FFF758FD18E00020FFF79FFD134871
:1011D000FFF72BFE0446FE2020700320A0700420A1
:1011E00060701820E070002121712046FFF723FE77
:1011F000064631460948FFF73EFD07480570054899
:10120000006807F006F9002089E700006817001061
:101210000E010010D00000100F0100105A1700102E
:10122000DA16001010B508F079FA0320AA4908620E
:1012300000204861A948006807F051FD08F07CFAD9
:1012400010BD10B50120A6490860A1F10201C1F846
:101250001A004FF0CF00A04908604FF0000048602E
:101260004FF0040008614FF0000048614FF00200A9
:10127000086248604FF00B02AFF257014FF01E00BA
:1012800006F0E1FA1E2006F0D9FB10BD2DE9FE4F55
:1012900007468846164600250024A146A24600209F
:1012A000009082252D0605F07F458E48384045EA9E
:1012B000C00507F07F0045EA40054FF6FF7000EAE1
:1012C0001540ADF80400A8B2ADF80600012086492B
:1012D000086000BF06F10200A0EB0400082802DD50
:1012E0004FF0080903E0B01C001B1FFA80F912E060
:1012F000022C05DA01A830F814007749886004E070
:10130000A01E38F8100074498860601C84B2A9F1EE
:1013100001001FFA80F97048C06810F0020F02D077
:10132000B9F1000FE4DC03206B4908620220486138
:101330006A4600216948006807F080FC04E06648BE
:1013400080681FFA80FA00BF6348C06810F0040F7D
:10135000F5D1B01C8442BDDB0120644908604FF028
:10136000140008F01DF83046BDE8FE8F2DE9FE4F51
:1013700080468946164600240025A2460027A3463B
:10138000002000905224240604F07F44554808EAC7
:10139000000044EAC00408F07F0044EA40044FF62D
:1013A000FF7000EA1440ADF80400A0B2ADF80600EA
:1013B0004FF6FF70ADF80800ADF80A0001204A4969
:1013C000086000BF06F10400A0EB0500082802DD5C
:1013D0004FF0080A03E0301D401B1FFA80FA11E0AD
:1013E000042D05DA01A830F815003B49886003E0B8
:1013F0004FF6FF7038498860681C85B2AAF1010079
:101400001FFA80FA3448C06810F0020F02D0BAF117
:10141000000FE5DC032030490862022048616A467B
:1014200000212E48006807F009FC0AE02A4880687D
:101430001FFA80FB042F02DB381F29F810B0781C3C
:1014400087B22548C06810F0040FEFD1301D8542E7
:10145000B8DB012025490860A7F1040080B2BDE88F
:10146000FE8F2DE9F04106460F4615464FF0000865
:1014700000240FE0281B802801DD802000E0281BCD
:101480001FFA80F807EB440130194246FFF7FEFED1
:10149000204484B2AC42EDDBBDE8F0812DE9F0419F
:1014A00006460F4615464FF0000800240FE0281BA3
:1014B000802801DD802000E0281B1FFA80F807EB60
:1014C000440130194246FFF751FF204484B2AC4238
:1014D000EDDBBDE8F081000000800840E400001072
:1014E00002C0092080FF07001EC009201AC0092081
:1014F0001748184908600020C86070472DE9F0417E
:1015000005460E46002700241348124908600220B1
:1015100007F046FF0F4F103710E057F8240010F087
:10152000004F06D057F82400C0F30B1025F8140024
:1015300002E0002025F81400601C84B2B44201DAF5
:10154000082CEADB0248034908602046BDE8F08128
:1015500030012000004003403001210008B5002088
:1015600000906A4600210F48006807F067FB08BD3D
:1015700008B5002000906A4600210B48006807F07B
:101580005DFB08BD10B50948007818B10548006832
:1015900007F0A5FB0648007818B10348006807F07B
:1015A0009EFB10BDE8000010EC00001011010010BF
:1015B000100100107CB504464FF6FF754AF6AA20CC
:1015C0000190002000904FF40C5060800146E180B3
:1015D0006181E089404201B2E181608A404201B20A
:1015E0006182E08A404201B2E18201F08EF802217C
:1015F000FD2000F0E9FC85B2012201A9284600F097
:1016000093FE12222146284600F08EFE01F07DF85E
:101610006A460021FE48006806F043FE2422214667
:10162000FC4808F044FFFA48006806F0F2FE01208A
:101630007CBDF8B504464FF6FF752846009000269D
:1016400001F063F80121FD2000F0BEFC85B201220B
:101650006946284600F0EAFCBDF80000A0F52A41E2
:10166000AA3905D124222146284600F0DFFC0126B4
:1016700001F04BF83046F8BD10B504462046FFF7A0
:10168000D8FF00B110BD002020804FF40C506080C6
:101690000020A0804FF40C51E18020816181A08165
:1016A0004FF47E41E181002121824FF47E4161822D
:1016B0000021A1824FF47E41E18220834FF400712A
:1016C00061830021A1834FF40071E1830021218413
:1016D0004FF40071618400BFD4E71CB50020019075
:1016E0004FF4FA7007F05CFE34200190012001AB4A
:1016F0000022014600903C2005F0DCFA60200190B9
:10170000012001AB0246014600903C2005F0D2FAD0
:1017100000200190012001AB0222014600903C20F4
:1017200005F0C8FA4FF4FA7007F03AFE082001906D
:10173000012001AB2D2201460090A62005F0BAFA47
:1017400080200190012001AB2E2201460090A620AE
:1017500005F0B0FA0B200190012001AB31220146C7
:101760000090A62005F0A6FA6F200190012001ABA1
:10177000202201460090D22005F09CFA042001901E
:10178000012001AB212201460090D22005F092FAFF
:1017900008200190012001AB222201460090D220B6
:1017A00005F088FA10200190012001AB23220146A8
:1017B0000090D22005F07EFA10200190012001ABAC
:1017C000242201460090D22005F074FA92480021AC
:1017D000016081801221914808F0E0FE24218D48AB
:1017E00008F0DCFE28218E4808F0FAFE00208D4922
:1017F00008608D4908608D4908608D4908608548FA
:10180000FFF73AFF00201CBD2DE9F04F85B0864858
:1018100000680AF001FE064609F038FF04460AF0A7
:101820000FF80490804800680AF0F6FD064609F0BB
:1018300083FF04460AF004F803907C4800680AF02D
:10184000EBFD064609F022FF044609F0F9FF02907D
:10185000764800680AF0E0FD064609F06DFF044690
:1018600009F0EEFF01906E49086A04990AF098FFAA
:10187000064601990AF094FF04466949C86903992C
:101880000AF08EFF804601990AF08AFF06466449F5
:10189000886902990AF084FF074631460AF0E8FD9C
:1018A000054621460AF0E4FD82465D49086A03992F
:1018B0000AF076FF04465A49C86904990AF070FF95
:1018C000054621460BF06AF8834650460AF0A4FD0F
:1018D00006460F46594657480AF062FF00900AF044
:1018E0009BFD804632463B4609F010FE044609F057
:1018F000A7FF4B494862486A00210AF01DFF0DD23C
:101900004749486A0AF088FD06464B4A4B4B09F0A6
:10191000C9FF044609F094FF4149486205B0BDE89B
:10192000F08F0246002100BF13E032F9110040F2AF
:10193000FE73984202DD184622F8110032F91100B8
:101940003F4B984203DA4FF6020022F81100481C80
:1019500081B20329E9DB002070470146002070476F
:101960000146002070472DE9FF410020019006202C
:1019700002AB0322012100903C2005F0E0F901AA0E
:1019800000212348006806F08CFC9DF809009DF8B2
:10199000081040EA012000B2204988819DF80D001E
:1019A0009DF80C1040EA012001B21C48C1819DF84D
:1019B0000B009DF80A1040EA012001B2174801828D
:1019C0000C30FFF7AEFF1248006806F022FD06203B
:1019D00002AB322201210090A62005F0B0F901AA45
:1019E00000210B48006806F05CFC9DF808009DF89B
:1019F000091040EA012000B20849C8809DF80A0099
:101A00009DF80B1040EA012001B20448018119E061
:101A1000F00000108A170010240100107817001041
:101A2000B017001020010010140100101801001060
:101A30001C010010000080BF50455254FB2119408A
:101A400002F8FFFF9DF80C009DF80D1040EA012000
:101A500001B2ED484181801DFFF77FFFEB48006830
:101A600006F0D7FC062002ABA82201210090D2206C
:101A700005F065F901AA0021E448006806F011FCB0
:101A80009DF808009DF8091040EA012000B2DE49E7
:101A900008809DF80A009DF80B1040EA012000B272
:101AA000D94948809DF80C009DF80D1040EA0120AE
:101AB00000B2D54988800846FFF752FFD348006836
:101AC00006F0A7FC01AA0021D048006806F0E9FB57
:101AD000CF49B1F90E000AF017FE0546CA49B1F91F
:101AE0000610CB4AB2F90C20881A0AF00DFE064601
:101AF00029460AF055FE04464FF088410AF026FDBB
:101B0000C449C860C249B1F912000AF0FDFD064699
:101B1000BD49B1F90820BE49B1F91010501A0AF0B8
:101B2000F3FD054631460AF03BFE04464FF088417E
:101B30000AF00CFDB7490861B549B1F916000AF081
:101B4000E3FD0646B049B1F90A20B149B1F91410D4
:101B5000501A0AF0D9FD054631460AF021FE044626
:101B60004FF088410AF0F2FCAA494861A849B1F94E
:101B700002000AF0C9FD0646A349B1F90010A44AC3
:101B8000B2F90020881A0AF0BFFD074631460AF074
:101B900007FE05464FF088410AF0D8FC04469E49EE
:101BA0000AF0D4FC9B4908609949B1F906000AF093
:101BB000ABFD06469449B1F90210954AB2F90420EA
:101BC000881A0AF0A1FD074631460AF0E9FD0546EC
:101BD0004FF088410AF0BAFC04468F490AF0B6FC7F
:101BE0008C4948608A49B1F90A000AF08DFD074620
:101BF0008549B1F90410864AB2F90820881A0AF01A
:101C000083FD064639460AF0CBFD05464FF0884174
:101C10000AF09CFC044680490AF098FC7D498860E3
:101C20007B49B1F91A000AF06FFD05467649B1F912
:101C30000C10774AB2F91820881A0AF065FD06469A
:101C400029460AF0ADFD04464FF088410AF07EFCBB
:101C5000704988616E49B1F91E000AF055FD0646CB
:101C60006949B1F90E206A49B1F91C10501A0AF0FD
:101C70004BFD054631460AF093FD04464FF088417E
:101C80000AF064FC6349C8616149B1F922000AF0B5
:101C90003BFD05465C49B1F910205D49B1F92010C2
:101CA000501A0AF031FD064629460AF079FD04462D
:101CB0004FF088410AF04AFC5649086253480068D0
:101CC00006F0A7FB554801680068401C534A1060A5
:101CD000052904D3002011460860FFF795FD05F0A3
:101CE0001CFB05F0DBF805F0FCF905F0C6FB01AACA
:101CF00000214648006806F0D4FA4FF08841484871
:101D000000680AF04DFD04460AF0E2FC00B24549C5
:101D100008804FF08841444800680AF041FD0446BD
:101D20000AF0D6FC00B23F4948804FF088413F4856
:101D300000680AF035FD04460AF0CAFC00B23949D1
:101D400088803248006806F064FB002004B0BDE8DB
:101D5000F08138B50446002000906A4600212B48E7
:101D6000006806F09EFA28480088208026484088AF
:101D7000608025488088A0802348C088E080224871
:101D800001892181418961818089A0811E48C189A1
:101D9000E181018A21821D48006806F03AFB00209B
:101DA00038BD38B50446002000906A460021174827
:101DB000006806F076FA1B480088208019484088A1
:101DC000608018488088A0801048006806F021FBD9
:101DD000002038BD38B505460C46002000906A4604
:101DE00000210A48006806F05CFA0E48008820834B
:101DF0000C48418861838188A1830448006806F00B
:101E000008FB002038BD000078170010F00000101B
:101E10008A170010B017001000007A44200100104B
:101E20001401001024010010180100101C01001002
:101E300030B503460BB9002030BD002400219A0FB5
:101E40009B00012A01D9491C521A0F250EE04900B6
:101E5000920002EB93720C46012000EB44049B00BD
:101E6000A24201D3121B491C681E85B2002DEEDC74
:101E7000481C00B2E0E70146002910DA11F5497F5D
:101E800006DA01F5C9603A4A32F91000404204E02E
:101E900037484A4230F91200404200B27047B1F56B
:101EA000497F05DDC1F5C960314A32F91000F5E717
:101EB0002F4830F91100F1E70146002911DA11F538
:101EC000497F07DA4842A0F54970294A32F91000E3
:101ED000404204E0264A01F5497032F9100000B290
:101EE0007047B1F5497F06DDA1F54970204A32F906
:101EF0001000404204E0C1F549701D4A32F910005B
:101F000000B2EDE710B502460B4600212BB90AB925
:101F1000481E10BD4FF4497119E002FB02F189021D
:101F200003FB03F002FB020091FBF0F0C0F500712F
:101F3000002906DA0F484C4230F9140000F54970C8
:101F400004E00C4830F91100C0F549704110002A36
:101F500006DA002B02DAA1F5C96107E0494205E083
:101F6000002B02DAC1F5C96100E000BF08B2D0E77A
:101F700076CB0000C0D1000010B5002440F2123131
:101F8000FB4808F00BFB00BF0CE04FF6FF7004EBC2
:101F9000440101EBC411F64A02EB4101A1F804012E
:101FA000601C84B2032CF0DB1021F24808F0F6FA32
:101FB000002406E04FF6FF70EE4921F83400601C63
:101FC00084B2022CF6DB10BD10B502460B46002190
:101FD00000BF21E0E74830F83100A0F57F44FF3C26
:101FE00018D102EB82004FF6FF7404EA4000E14C86
:101FF00024F83100204630F8310004EBC104608041
:102000000020DC4C04EBC104A080DA4800EBC100E6
:10201000C38003E0481C01B20229DBDB00BF0229B8
:1020200001DA084610BD4FF0FF30FBE72DE9F0471D
:1020300004460F4616460025A846CE4830F8340020
:10204000A0F57F41FF3902D1481EBDE8F08729E1A4
:10205000002511E005EB450000EBC510C44901EB7C
:102060004000B0F80401C34901EBC401498888422B
:1020700000D103E0681C85B2032DEBDB00BF032D0C
:1020800059DABC4800EBC4008088C0F18000B0423F
:102090001BDB05EB450000EBC510B54B03EB400027
:1020A000B44B03EBC4039B8800EB4301720038463A
:1020B00008F0FDF9AF4800EBC40080883044AD491A
:1020C00001EBC40188800026ECE005EB450000EB45
:1020D000C510A74B03EB4000A64B03EBC4039B8842
:1020E00000EB4301A34800EBC4008088C0F18000EE
:1020F0004200384608F0DBF99E4800EBC4008088B7
:10210000C0F1800007EB40079A4800EBC4008088CC
:10211000C0F18000301A86B20020964901EBC4015C
:102120008880944800EBC4004088401C914901EB32
:10213000C4014880B6E04FF00009CA46002523E0FC
:1021400005EB450000EBC510894901EB4000B0F8F4
:102150000401A0F57F41FF3900D117E005EB4500F0
:1021600000EBC510824901EB4000B0F80201484580
:1021700008DD05EB450000EBC51001EB4000B0F8B1
:102180000291AA46681C85B2032DD9DB00BF032D3E
:1021900001DA284600E050460546764800EBC400C8
:1021A000408805EB450101EBC511714A02EB410185
:1021B000A1F80401002005EB450101EBC51102EB7C
:1021C0004101A1F8020105EB450000EBC5101146E5
:1021D00001EB4000B0F804014FEAC01805EB4500E0
:1021E00000EBC51002EB400180224046FFF7BEF82D
:1021F000604800EBC4008088C0F18000B0421BDB67
:1022000005EB450000EBC510594B03EB4000594B63
:1022100003EBC4039B8800EB43017200384608F0CF
:1022200046F9544800EBC40080883044514901EB22
:10223000C4018880002634E005EB450000EBC510A2
:102240004B4B03EB40004B4B03EBC4039B8800EB71
:102250004301484800EBC4008088C0F18000420080
:10226000384608F024F9434800EBC4008088C0F1E8
:10227000800007EB40073F4800EBC4008088C0F1B6
:102280008000301A86B200203A4901EBC4018880F0
:10229000384800EBC4004088401C364901EBC401BB
:1022A000488000BF002E3FF7D3AE002538E005EB95
:1022B000450000EBC5102E4901EB4000B0F80401C9
:1022C000A0F57F41FF3929D005EB450000EBC51093
:1022D000274901EB4000B0F802014FF6FE71884239
:1022E00009DD05EB450000EBC510214901EB40007D
:1022F000B0F8020109E005EB450000EBC5101C49F0
:1023000001EB4000B0F80201401C05EB450101EB78
:10231000C511174A02EB4101A1F80201681C85B200
:10232000032DC4DB002090E62DE9F04705460F465B
:1023300016460024A0460F4830F83500A0F57F412E
:10234000FF3902D1481EBDE8F08742E1002415E0C4
:1023500004EB440000EBC410054901EB4000B0F869
:102360000401044901EBC5014988884204D107E012
:10237000D8170010EA1A0010601C84B2032CE7DBA7
:1023800000BF032C70DAE74800EBC5008088C0F17D
:102390008000B0421BDB04EB440101EBC411E24BB3
:1023A00003EB4101DF4B03EBC5039B8801EB4300CB
:1023B0007200394608F07BF8DA4800EBC5008088E7
:1023C0003044D84901EBC5018880002601E104EBC7
:1023D000440101EBC411D44B03EB4101D14B03EB9E
:1023E000C5039B8801EB4300CE4901EBC5018988F9
:1023F000C1F180014A00394608F059F804EB440065
:1024000000EBC410C84901EB4000B0F804014FEAEA
:10241000C01804EB440000EBC4100A4602EB400174
:1024200080224046FEF732FFBE4800EBC5008088A0
:10243000C0F1800007EB4007BA4800EBC500808878
:10244000C0F18000301A86B20020B64901EBC50108
:102450008880B44800EBC5004088401CB14901EBBE
:10246000C5014880B5E0FFE74FF0000AD1460024DF
:1024700023E004EB440000EBC410AB4901EB400047
:10248000B0F80401A0F57F41FF3900D117E004EB5B
:10249000440000EBC410A44901EB4000B0F8020175
:1024A000504508DD04EB440000EBC41001EB400094
:1024B000B0F802A1A146601C84B2032CD9DB00BF96
:1024C000032C00DB4C46974800EBC500408804EB2A
:1024D000440101EBC411944A02EB4101A1F804014B
:1024E000002004EB440101EBC41102EB4101A1F80F
:1024F00002018C4800EBC5008088C0F18000B0422A
:102500001BDB04EB440101EBC411134603EB410157
:10251000844B03EBC5039B8801EB430072003946F3
:1025200007F0C5FF7F4800EBC500808830447D4937
:1025300001EBC501888000264AE004EB440000EB73
:10254000C410794B03EB4000764B03EBC5039B882B
:1025500000EB4301734800EBC5008088C0F18000A8
:102560004200384607F0A3FF04EB440000EBC41020
:102570006D4901EB4000B0F804014FEAC01804EBCC
:10258000440000EBC4100A4602EB400180224046A2
:10259000FEF77CFE634800EBC5008088C0F1800038
:1025A00007EB40075F4800EBC5008088C0F1800062
:1025B000301A86B200205B4901EBC501888059487A
:1025C00000EBC5004088401C564901EBC50148801E
:1025D00000BF002E3FF7BAAE002438E004EB440001
:1025E00000EBC410504901EB4000B0F80401A0F525
:1025F0007F41FF3929D004EB440000EBC4104A4965
:1026000001EB4000B0F802014FF6FE71884209DD8F
:1026100004EB440000EBC410434901EB4000B0F868
:10262000020109E004EB440000EBC4103E4901EB59
:102630004000B0F80201401C04EB440101EBC4115E
:10264000394A02EB4101A1F80201601C84B2032C5B
:10265000C4DB002077E670B504460025002631482B
:1026600030F83400A0F57F41FF3901D1481E70BD1C
:102670002C4800EBC400807910F0020F32D02948BA
:1026800000EBC400808868B3002511E005EB45002D
:1026900000EBC510244901EB4000B0F804012149CA
:1026A00001EBC4014988884200D103E0681C85B26F
:1026B000032DEBDB00BF032D14DA05EB450000EB27
:1026C000C510194901EB4000B0F80401C60105EB43
:1026D000450000EBC5100A4602EB4001802230465F
:1026E000FEF7D4FD4FF6FF700E4921F834000020AC
:1026F00001EBC40148800B4901EBC4018880094902
:1027000001EBC401C88000BFB1E710B5002400BFD1
:1027100004E02046FFF79FFF601C84B2022CF8DB28
:10272000002010BDEA1A0010D81700102DE9F0475C
:1027300004460D4616460027B846B94630886082E2
:102740007188A182B188E182B5F90070B5F9028083
:10275000B5F904904046FFF7AFFB82464846FFF7C5
:10276000ABFB0AFB00FA4FEA6A2000B22080384631
:10277000FFF7A2FB82464846FFF77DFB0AFB00FA03
:102780004FEA6A20404200B260803846FFF773FB90
:1027900082464046FFF76FFB0AFB00FA4FEA6A20C9
:1027A0000FFA80FA4846FFF787FB0AFB00FA6188B8
:1027B00001EB6A2000B260803846FFF75CFB82467E
:1027C0004846FFF758FB0AFB00FA4FEA6A2000B2BE
:1027D000A0804046FFF74FFB82464846FFF76CFB60
:1027E0000AFB00FA4FEA6A200FFA80FA3846FFF730
:1027F00063FB0AFB00FAA18801EB6A2000B2A0800B
:102800004046FFF759FB82464846FFF734FB0AFB78
:1028100000FA4FEA6A2000B2E0803846FFF74CFB2E
:1028200082464846FFF748FB0AFB00FA4FEA6A2057
:1028300000B220814046FFF71EFB82463846FFF774
:102840001AFB0AFB00FA4FEA6A200FFA80FA4846A0
:10285000FFF711FB0AFB00FA218901EB6A2000B2A5
:1028600020814846FFF728FB82463846FFF703FBE6
:102870000AFB00FA4FEA6A20404200B260814046FB
:10288000FFF7F9FA82464846FFF7F5FA0AFB00FA25
:102890004FEA6A200FFA80FA3846FFF70DFB0AFB71
:1028A00000FA618901EB6A2000B260814046FFF7BF
:1028B000E2FA404200B2A0814046FFF7FDFA8246AC
:1028C0003846FFF7D8FA0AFB00FA4FEA6A2000B24E
:1028D000E0814046FFF7F0FA82463846FFF7ECFA0F
:1028E0000AFB00FA4FEA6A2000B220820020BDE80D
:1028F000F0872DE9F04704460D4616460027B846F6
:10290000B946308860827188A182B188E182B5F9C8
:102910000070B5F90280B5F904904046FFF7CCFA93
:1029200082464846FFF7C8FA0AFB00FA4FEA6A20D7
:1029300000B220803846FFF7BFFA82464846FFF7CC
:102940009AFA0AFB00FA4FEA6A20404200B2E0809D
:102950003846FFF790FA82464046FFF78CFA0AFBAA
:1029600000FA4FEA6A200FFA80FA4846FFF7A4FA05
:102970000AFB00FAE18801EB6A2000B2E0803846E9
:10298000FFF779FA82464846FFF775FA0AFB00FA24
:102990004FEA6A2000B2A0814046FFF76CFA8246F7
:1029A0004846FFF789FA0AFB00FA4FEA6A200FFA55
:1029B00080FA3846FFF780FA0AFB00FAA18901EB9A
:1029C0006A2000B2A0814046FFF776FA8246484668
:1029D000FFF751FA0AFB00FA4FEA6A2000B2608062
:1029E0003846FFF769FA82464846FFF765FA0AFB60
:1029F00000FA4FEA6A2000B220814046FFF73BFA16
:102A000082463846FFF737FA0AFB00FA4FEA6A2097
:102A10000FFA80FA4846FFF72EFA0AFB00FA2189DE
:102A200001EB6A2000B220814846FFF745FA824652
:102A30003846FFF720FA0AFB00FA4FEA6A204042C4
:102A400000B2E0814046FFF716FA82464846FFF79B
:102A500012FA0AFB00FA4FEA6A200FFA80FA3846A7
:102A6000FFF72AFA0AFB00FAE18901EB6A2000B2BB
:102A7000E0814046FFF7FFF9404200B2A0804046A7
:102A8000FFF71AFA82463846FFF7F5F90AFB00FA13
:102A90004FEA6A2000B260814046FFF70DFA824695
:102AA0003846FFF709FA0AFB00FA4FEA6A2000B23B
:102AB00020820020BDE8F0872DE9F04104460D4654
:102AC00016462846FFF7F8F920802846FFF7D3F985
:102AD00007463046FFF7CFF94743781200B26080CF
:102AE0002846FFF7C8F907463046FFF7E5F94743A0
:102AF0007812404200B2A0800020E0803046FFF70C
:102B0000DBF920813046FFF7B6F960812846FFF7F0
:102B1000B2F9A0812846FFF7CFF907463046FFF704
:102B2000AAF947437812404200B2E0812846FFF7F5
:102B3000C3F907463046FFF7BFF94743781200B2A2
:102B400020820020BDE8F081F0B503460C46154612
:102B50000021002200BF51E0002225E001EB4100EE
:102B600033F9100034F912607043401201EB410652
:102B7000761C33F91660D71C34F917707E4300EBCE
:102B8000662701EB4100801C33F91000961D34F9D3
:102B90001660704307EB602000B201EB410616445B
:102BA00025F81600501C82B2032AD7DB01EB410046
:102BB00033F91000B4F912607043401201EB410682
:102BC000761C33F91660B4F914707E4300EB662767
:102BD00001EB4100801C33F91000B4F9166070431A
:102BE00007EB602603F1120030F81100304406B202
:102BF00005F1120020F81160481C81B20329ABDBFB
:102C00000020F0BD3CB502460B46002100BF25E088
:102C100001EB410032F91000B3F90040604340126B
:102C200001EB4104641C32F91440B3F902506C43C7
:102C300000EB642401EB4100801C32F91000B3F971
:102C40000450684304EB602402F1120030F81100D4
:102C5000204400B22DF81100481C81B20329D7DBB3
:102C600000981860BDF80400988000203CBD2DE954
:102C7000F04395B00746884616461C46002506F0E8
:102C800041FC814638884042B8F80010084400B240
:102C9000388078884042B8F80210084400B2788042
:102CA000B8884042B8F80410084400B2B8803A46E8
:102CB00008F1060109A8FFF739FD00203880788067
:102CC0003089404200B2B8803A46B91D0FA8FFF7DC
:102CD00010FE03AA09A90FA8FFF736FF0020ADF8E0
:102CE0000400B6F900004010ADF8060070884042BC
:102CF00000B2ADF8080001A903A8FFF783FFBDF9F2
:102D000004004043BDF9061001FB0101BDF90800B4
:102D100000FB0015B6F906004043B6F9041001FBAC
:102D20000100451B2D02B6F90400B6F90610484310
:102D300095FBF0F5002D06DACD48694230F9110017
:102D400000F5497004E0CA4830F91500C0F5497033
:102D5000C0F5C96528B26082BDF90810BDF906004A
:102D6000FFF7D0F8454228B2E082B4F91200FFF72D
:102D700082F8B6F90610494300FB01F5BDF90400DD
:102D80004043BDF9061001FB0100BDF9081001FB2D
:102D9000010095FBF0F5B4F91200FFF76CF86843F9
:102DA0004FF40071A1EB2025002D06DAB0486942EE
:102DB00030F9110000F5497004E0AD4830F9150014
:102DC000C0F549704010A082B4F91600FFF774F8FE
:102DD000BDF9041000FB01F56D12BDF9081028B211
:102DE000FFF790F8A18A084400B2A082A08A40426E
:102DF00000B2A082608AA38A1844404201B2B4F9AA
:102E000016200FA8FFF758FE0020ADF84E00002155
:102E10000FA88182C18209AA03A9FFF795FEBDF917
:102E20003000002807DABDF930004042904931F9FE
:102E30001000404204E0BDF930008D4931F9100026
:102E4000404200B22082BDF93410BDF93200FFF7D4
:102E500059F8E081BDF92410BDF92A00FFF752F8B6
:102E6000A081B8F800003880B8F802007880B8F87F
:102E700004003189401A00B2B8803A4608F10601D0
:102E800003A8FFF753FC0020ADF80400B6F90000DA
:102E900040104042ADF806007088404200B2ADF8E4
:102EA000080001A903A8FFF7ADFEBDF904004043E7
:102EB000BDF9061001FB0100BDF9081001FB010579
:102EC000B6F906004043B6F9041001FB0100451BAA
:102ED0002D02B6F90400B6F90610484395FBF0F54B
:102EE000002D06DA6248694230F9110000F5497098
:102EF00004E05F4830F91500C0F54970C0F5C965B8
:102F000028B2A080BDF90810BDF90600FEF7FAFF4F
:102F1000454228B22080B4F90400FEF7ACFFB6F9B0
:102F20000610494300FB01F5BDF904004043BDF91B
:102F3000061001FB0100BDF9081001FB010095FB23
:102F4000F0F5B4F90400FEF796FF68434FF4007102
:102F5000A1EB2025002D06DA4548694230F9110021
:102F600000F5497004E0424830F91500C0F5497099
:102F700040106080B4F90000FEF79EFFBDF9041018
:102F800000FB01F56D12BDF9081028B2FEF7BAFF7B
:102F90006188084400B260806088404200B260806E
:102FA0006088A3881844404201B2B4F900200FA8F9
:102FB000FFF782FD0020ADF84E0000210FA88182AE
:102FC000C18209AA03A9FFF7BFFDBDF9300000289F
:102FD00007DABDF930004042254931F9100040427E
:102FE00004E0BDF93000224931F91000404200B23E
:102FF000E080BDF93410BDF93200FEF783FF208177
:10300000BDF92410BDF92A00FEF77CFF6081B6F9F6
:103010000000002814DA0021002000BF0DE034F980
:103020001010C0F10B0234F8122024F81020C0F167
:103030000B0224F81210421C90B20628EFDB00BFEE
:103040006088404200B26080A088404200B2A08008
:10305000A08A404200B2A082608A404200B26082F0
:1030600006F050FAA0EB0909002015B0BDE8F08386
:10307000C0D1000010B50020FE4908804880FE49FC
:1030800008800E21FD4807F089FA8421FC4807F0EA
:1030900085FAFC48002101603821FB4807F0A0FABE
:1030A000FA4800210160416081604221F84807F040
:1030B00075FAF84800210160F7480160416000207E
:1030C000F6490880F649088010BD2DE9F84304460A
:1030D0000E4600270025A846002000906A460021E1
:1030E000F048006805F0DDF8E2494988E14A1288B5
:1030F000891A01F58060C11700EB91518912A0EB8C
:103100008121C1F580618FB226E000BFE6480068EA
:1031100005F008FD0028F9D1E248006805F079F9CA
:103120006A460021E048006805F088FD6A460021F3
:10313000DC48006805F0B5F8CE494988CD4A1288C8
:10314000891A01F58060C11700EB91518912A0EB3B
:103150008121C1F580618FB2BC42D6DC2746B046E2
:10316000002513E038F81510C2484288001D20F8E9
:103170001210011F4988481CC11700EB9151891298
:10318000A0EB8121BB4A5180681C85B2BD42E9DBBE
:103190000120C6490870C348006805F03AF90020CC
:1031A000BDE8F8832DE9F84F80468B4615461E464C
:1031B00000270024A14600200090824608F101006B
:1031C0001FFA80FA1DB10AF106001FFA80FA1EB13B
:1031D0000AF106001FFA80FA6A460021B148006829
:1031E00005F05FF8A3494988A24A1288891A01F5B7
:1031F0008060C11700EB91518912A0EB8121C1F5CC
:1032000080618FB226E000BFA748006805F08AFC05
:103210000028F9D1A348006805F0FBF86A460021B0
:10322000A148006805F00AFD6A4600219D48006833
:1032300005F037F88F4949888E4A1288891A01F5B6
:103240008060C11700EB91518912A0EB8121C1F57B
:1032500080618FB2BA45D6DC4746D946002413E0D8
:1032600039F8141083484288001D20F81210011FFD
:103270004988481CC11700EB91518912A0EB8121AC
:103280007C4A5180601C84B2BC42E9DB79494A889F
:10329000091D0A9821F81200091F4988481CC11706
:1032A00000EB91518912A0EB8121724A5180CDB17E
:1032B0000627A946002413E039F814106D48428807
:1032C000001D20F81210011F4988481CC11700EB8F
:1032D00091518912A0EB8121664A5180601C84B211
:1032E000BC42E9DBCEB10627B146002413E039F831
:1032F000141060484288001D20F81210011F4988F0
:10330000481CC11700EB91518912A0EB8121594A49
:103310005180601C84B2BC42E9DB01206349087023
:103320006048006805F075F80020BDE8F88F38B5F2
:103330000446002000906A4600215A48006804F0C4
:10334000B0FF16E000BF5848006805F0EBFB00280E
:10335000F9D15448006805F05CF86A4600215248EB
:10336000006805F06BFC6A4600214E48006804F0D6
:1033700098FF404949883F4A1288891A01F58060C0
:10338000C11700EB91518912A0EB8121A142D9DC38
:103390004448006805F03DF8002038BD2DE9F84F9D
:1033A00004468B46904699460026002500270020BB
:1033B00000908246A088401C1FFA80FAB8F1000FE6
:1033C00007D00AF106001FFA80FAA08840F40040F6
:1033D000A080B9F1000F07D00AF106001FFA80FAA9
:1033E000A08840F48040A0806A4600212D480068F3
:1033F00004F057FF1F4949881E4A1288891A01F5AF
:103400008060C11700EB91518912A0EB8121C1F5B9
:1034100080618EB226E000BF2348006805F082FB81
:103420000028F9D11F48006804F0F3FF6A46002124
:103430001D48006805F002FC6A4600211948006832
:1034400004F02FFF0B4949880A4A1288891A01F5AE
:103450008060C11700EB91518912A0EB8121C1F569
:1034600080618EB20AF10700B042D4D80726274601
:10347000002531E0441C00104A01001048240010CF
:103480007C1B00103A010010001C0010381C0010BA
:1034900056240010360100103E01001046010010B5
:1034A0004801001000010010F80000101001001089
:1034B00037F81510FE484288001D20F81210011F31
:1034C0004988481CC11700EB91518912A0EB81215A
:1034D000F74A5180681C85B2B542E9DBA08820F428
:1034E00040465F46002513E037F81510F048428843
:1034F000001D20F81210011F4988481CC11700EB5D
:1035000091518912A0EB8121E94A5180681C85B252
:10351000B542E9DBE6494A88091D0A9821F81200FC
:10352000091F4988481CC11700EB91518912A0EB73
:103530008121DF4A5180A08810F4004F19D006265F
:103540004746002513E037F81510D9484288001D7A
:1035500020F81210011F4988481CC11700EB915137
:103560008912A0EB8121D24A5180681C85B2B542F4
:10357000E9DBA08810F4804F19D006264F460025BD
:1035800013E037F81510CA484288001D20F81210C1
:10359000011F4988481CC11700EB91518912A0EB0B
:1035A0008121C34A5180681C85B2B542E9DBA088FD
:1035B00020F44040A0800120BE490870BE48006849
:1035C00004F027FF0020BDE8F88F2DE9F8430546F9
:1035D0000F4600260024A046002000906A460021E5
:1035E000B548006804F05DFEB1494988B04A1288C8
:1035F000891A01F58060C11700EB91518912A0EB87
:103600008121C1F580618EB226E000BFAB48006821
:1036100005F088FA0028F9D1A748006804F0F9FEFF
:103620006A460021A548006805F008FB6A460021AB
:10363000A148006804F035FE9D4949889C4A1288DB
:10364000891A01F58060C11700EB91518912A0EB36
:103650008121C1F580618EB2A888C01DB042D4D846
:103660000726A846002413E038F814109048428832
:10367000001D20F81210011F4988481CC11700EBDB
:1036800091518912A0EB8121894A5180601C84B23A
:10369000B442E9DBAE88B846002413E038F81410D1
:1036A00083484288001D20F81210011F4988481CD9
:1036B000C11700EB91518912A0EB81217C4A518006
:1036C000601C84B2B442E9DB01207A4908707A4870
:1036D000006804F09EFE0020BDE8F88301460888DB
:1036E000404200B208804888404200B248800889C1
:1036F000404200B208814889404200B2488188892E
:10370000404200B28881C889404200B2C881088A1C
:10371000404200B20882488A404200B24882C88AC9
:10372000404200B2C882888B404200B28883C88B76
:10373000404200B2C883488C404200B24884002016
:1037400070475F480088002834D15E48B0F9040013
:10375000002810DB5B48818859488182B0F9140049
:103760005949B1F91C104843401201B254488185AF
:10377000818A418303E0002151488182818551483B
:10378000B0F90600002810DB4E48C1884C48C182C1
:10379000B0F916004C49B1F91E104843401201B26D
:1037A0004748C185C18A818338E000214448C182ED
:1037B000C18533E04348B0F90400002810DC4148DB
:1037C00081883F488182B0F914003F49B1F91C104B
:1037D0004843401201B23A488185818A418303E01F
:1037E00000213748818281853648B0F906000028DB
:1037F00010DC3448C1883248C182B0F91600324921
:10380000B1F91E104843401201B22D48C185C18A4A
:10381000818303E000212A48C182C185294840886C
:10382000274948820846408A08830846B0F91200B2
:103830002549B1F91A104843401200B22049488581
:10384000002070471E480088002875D11D48008858
:10385000002872D01A48B0F90E00002818DD194867
:10386000808880B10021164881828185C182C1850E
:10387000002013494882488508830021104841836D
:1038800081830020704700210D48818281853AE0C4
:103890000C48B0F9040000281FDB0A48818808485A
:1038A0008182B0F914000849B1F91C1048430DE0B9
:1038B000441C00101001001000010010F80000105E
:1038C000001C00103E01001098240010401201B2AC
:1038D000FE488185818A418315E0FD48B0F90400E6
:1038E000002810DA0021F94881828185C182C185D2
:1038F0000020F6494882488508830021F348418327
:1039000081830020BEE7F148B0F9100000281ADDDD
:10391000EF48C08890B10021EC4881828185C18246
:10392000C1850020E9494882488508830021E7488D
:10393000418381830020A5E7E6E05EE00021E348C3
:10394000C182C1852BE0E248B0F90600002810DBF7
:10395000DF48C188DD48C182B0F91600DD49B1F900
:103960001E104843401201B2D848C185C18A8183E4
:1039700015E0D748B0F90600002810DA0021D34836
:1039800081828185C182C1850020D04948824885D5
:1039900008830021CD4841838183002072E7CB4812
:1039A000B0F90C00CA49B1F902104843002810DDF3
:1039B0000021C64881828185C182C1850020C3491A
:1039C0004882488508830021C048418381830020C4
:1039D00058E7BF484088BD4948820846408A088366
:1039E0000846B0F91200BB49B1F91A104843401219
:1039F00000B2B6494885022044E7B448B0F90E0049
:103A000000281ADDB248B0F90400002810DD0021BA
:103A1000AE4881828185C182C1850020AB49488240
:103A2000488508830021A94841838183002029E734
:103A30000021A6488182818519E0A548B0F90400DB
:103A4000002810DBA2488188A0488182B0F91400C8
:103A5000A049B1F91C104843401201B29B4881852E
:103A6000818A418303E000219848818281859748BB
:103A7000B0F9100000281ADD9548B0F906000028BA
:103A800010DD0021914881828185C182C18500209D
:103A90008E4948824885088300218C484183818370
:103AA0000020EFE600218948C182C18519E08848DD
:103AB000B0F90600002810DB8548C1888348C18220
:103AC000B0F916008349B1F91E104843401201B203
:103AD0007E48C185C18A818303E000217B48C18281
:103AE000C1850020794948820846408A08830846F3
:103AF000B0F912007749B1F91A104843401200B2E8
:103B0000724948850120BDE67148008800287DD1B2
:103B10006E48B0F90E00002818DA6D48808880B130
:103B200000216A4881828185C182C1850020674960
:103B300048824885088300216448418381830020AE
:103B4000A0E600216148818281852BE06048B0F9C0
:103B50000400002810DC5E4881885C488182B0F94E
:103B600014005C49B1F91C104843401201B2574897
:103B70008185818A418315E05548B0F90400002809
:103B800010DD0021514881828185C182C1850020DC
:103B90004E4948824885088300214C4841838183EF
:103BA00000206FE64948B0F91000002818DA4848AC
:103BB000C08880B10021454881828185C182C1854C
:103BC0000020424948824885088300213F484183BC
:103BD0008183002056E600213C48C182C1852CE04B
:103BE0003B48B0F90600002811DC3948C188374845
:103BF000C182B0F916003749B1F91E10484340128E
:103C000001B23248C185C18A818316E043E0304861
:103C1000B0F90600002810DD00212C488182818542
:103C2000C182C18500202949488248850883002136
:103C3000264841838183002024E62448B0F90C0003
:103C40002349B1F902104843002810DD00211F4824
:103C500081828185C182C18500201C4948824885B6
:103C60000883002119484183818300200AE618480F
:103C70004088164948820846408A08830846B0F9B9
:103C800012001449B1F91A104843401200B20F490A
:103C900048850220F6E50D48B0F90E00002820DA2C
:103CA0000B48B0F90400002816DA00210748818289
:103CB0008185C182C18500200449488248850883E6
:103CC00000210248418381830020DBE5001C0010B5
:103CD0003E010010982400100021FA48818281855D
:103CE00019E0F948B0F90400002810DCF648818892
:103CF000F4488182B0F91400F449B1F91C1048432A
:103D0000401201B2EF488185818A418303E000219E
:103D1000EC4881828185EB48B0F9100000281ADA5E
:103D2000E948B0F90600002810DA0021E548818250
:103D30008185C182C1850020E24948824885088387
:103D40000021E0484183818300209BE50021DD487C
:103D5000C182C18519E0DC48B0F90600002810DCFA
:103D6000D948C188D748C182B0F91600D749B1F9FE
:103D70001E104843401201B2D248C185C18A8183D6
:103D800003E00021CF48C182C1850020CD4948828F
:103D90000846408A08830846B0F91200CB49B1F9B9
:103DA0001A104843401200B2C6494885012069E50F
:103DB0002DE9F0410026C34801460A6BC0F81E20D9
:103DC000898E4184B0F92200C049B1F92810884297
:103DD00004DDBE48018DBB4841840EE0B948B0F90E
:103DE0002200BA49B1F928104942884205DAB74899
:103DF000008D404201B2B3484184B448B0F9261066
:103E0000B048B0F91C000144AE48B0F9220081422C
:103E100008DAAC48808BAD49C98C084401B2A94886
:103E2000418413E0A748B0F92200A849B1F926104F
:103E30000144A448B0F91C00814207DAA148808BF4
:103E4000A249C98C401A01B29E4841849D48B0F9EC
:103E50002200002811DD9D48B0F928109948B0F9DA
:103E60002200081A9949B1F92C1048439749B1F931
:103E7000281090FBF1F006B217E09248408C18B978
:103E80009248B0F92E6010E09048B0F928108D48A3
:103E9000B0F9220008448D49B1F92C1048438B49F0
:103EA000B1F9281090FBF1F006B28648B0F91E0077
:103EB00040438449B1F92020B1F9201002FB0104EC
:103EC00006FB06F0A04217DA2046FDF7B1FF7D4958
:103ED000B1F91E10714391FBF0F005B22046FDF7D9
:103EE000A7FF01467748B0F92000704390FBF1F03E
:103EF00007B27448C58307847248B0F91800714945
:103F0000B1F91E10401A00FB00F46E48B0F91A1007
:103F1000B0F92000091A6B48B0F91A20B0F9200056
:103F2000101A01FB00442046FDF782FF0446674853
:103F3000B0F92A00A04257DA6248B0F91E00614980
:103F4000B1F91810401A6149B1F92A10484390FBA1
:103F5000F4F05C49098B084400B25A49C88308460A
:103F6000B0F92010B0F91A00081A5849B1F92A100E
:103F7000484390FBF4F05349498B084401B251483F
:103F80000184B0F91E0040434E49B1F92020B1F937
:103F9000201002FB01042046FDF74AFF0446B4420C
:103FA00022DD4A48B0F92C00A04201DA00250DE0DC
:103FB0004648B0F9280060434449B1F92C1090FB01
:103FC000F1F005B24148008D401B05B23D48B0F903
:103FD0002210B0F91C00814202DD3A48458403E01A
:103FE000684201B2374841840020BDE8F08135487D
:103FF0000088002846D13348B0F90E00002804DDBF
:10400000002130488182818518E02E48B0F92000D7
:1040100000280FDB2B48018C8182B0F914002B495A
:10402000B1F91C104843401201B226488185818AAB
:10403000418303E000212348818281852148B0F932
:104040001000002804DD00211E48C182C18566E001
:104050001C48B0F9220000280FDB1A48418CC182AD
:10406000B0F916001949B1F91E104843401201B2C7
:104070001448C185C18A818351E000211148C18261
:10408000C1854CE00F48B0F90E00002804DA002189
:104090000C48818281851FE00A48B0F92000002881
:1040A00016DC0848018C8182B0F914000749B1F987
:1040B0001C104843401201B202488185818A418325
:1040C0000AE00000001C00103E01001098240010BF
:1040D0000021FE4881828185FC48B0F9100000284B
:1040E00004DA0021F948C182C18518E0F748B0F927
:1040F000220000280FDCF548418CC182B0F916007F
:10410000F349B1F91E104843401201B2EF48C1858E
:10411000C18A818303E00021EC48C182C185EB485C
:10412000B0F90C00E949B1F91E104843002803DD3D
:104130000020E649488203E0E448C08BE349488216
:10414000E248408AE14908830846B0F91200E04994
:10415000B1F91A104843401200B2DC4948850020EA
:1041600070472DE9F04105460E460024D949B1F9C2
:104170000000002801DB014600E0414209B2D54AB7
:104180001180D248008800287ED1B5F90000D049BE
:10419000B1F90E1000FB01F4CC48B0F90C0004EBAF
:1041A0004024CA49B1F91000FDF765FEC949B1F9CB
:1041B00000104843401040420444C448B0F9120083
:1041C000C249B1F90C10401AB5F9181000FB0144AE
:1041D000BE49B1F91600FDF74EFE0746BB49B1F9DD
:1041E0001000FDF748FE381ABA49B1F90010B5F9C8
:1041F000182051434843801240420444601200B2E8
:10420000B5490880B5F90200B149B1F9101000FBB9
:1042100001F4AE48B0F90E00AE49B1F9001000EB60
:10422000610004EB4024A949B1F91000FDF744FEF8
:10423000A849B1F90010484304EB6004A348B0F961
:104240001410B0F90E00081AB5F91A1000FB014459
:104250009E49B1F91600FDF72FFE07469B49B1F9BB
:104260001000FDF729FE381A9A49B1F90010B5F986
:104270001A205143484304EBA024601200B296492F
:104280004880B5F9040000E0B3E09149B1F912109B
:1042900000FB01F4601200B28F498880B5F9060076
:1042A0008B49B1F914104843441220B28A49C8809E
:1042B000B5F908008649B1F916104843441221B2F5
:1042C00085480181B5F90A008149B1F918104843C0
:1042D00044127E48B0F9100004447C48B0F916102E
:1042E000B0F91000081AB5F91C10484304EB60241B
:1042F00021B279484181B5F90C007549B1F9021034
:1043000000FB01F47148B0F9240004EB40246F482D
:10431000B0F92A006D49B1F92410401AB5F91E1000
:1043200000FB0144601200B26C490880B5F90E0030
:104330006749B1F9041000FB01F46648B0F90010B8
:104340006248B0F9260001EB400004EB00245F480E
:10435000B0F92C10B0F92600081AB5F9201001FBAD
:104360000044601200B25D494880B5F91000584918
:10437000B1F9061000FB01F4601200B257498880C1
:10438000B5F912005249B1F908104843441220B25D
:104390005249C880B5F914004D49B1F90A10484393
:1043A000441221B24D480181B5F916004849B1F9CE
:1043B0000C10484344124548B0F9280004444348CF
:1043C000B0F92E10B0F92800081AB5F922104843A8
:1043D00004EB602421B2414841813E49B1F900001B
:1043E000002801DB014600E0414209B2394A118050
:1043F00043E1B5F900003649B1F90E1000FB01F4B4
:104400003248B0F90C0004EB40243049B1F91000F7
:10441000FDF731FD2F49B1F90010484304EB60046A
:104420002A48B0F912002949B1F90C10401AB5F91F
:10443000181000FB01442549B1F91600FDF71BFDDA
:1044400007462249B1F91000FDF715FD391A214838
:10445000B0F90000B5F918205043414304EBA12402
:10446000601200B21C490880B5F9020040421849A8
:10447000B1F9101000FB01F41448B0F90E00154911
:10448000B1F90010A0EB610004EB40240F49B1F931
:104490001000FDF711FD0F49B1F90010484340101D
:1044A000404204440948B0F91410B0F90E00081A4B
:1044B000B5F91A1000FB01440449B1F91600FDF7E3
:1044C000FBFC07460149B1F9100009E0001C00108F
:1044D00098240010E2240010CA240010D6240010F2
:1044E000FDF7EAFC391AFE48B0F90000B5F91A20C8
:1044F00050434143881240420444601200B2F949DB
:104500004880B5F90400F849B1F9121000FB01F434
:10451000601200B2F3498880B5F90600F249B1F99A
:10452000141048434012444220B2EE49C880B5F905
:104530000800ED49B1F916104843441221B2E94888
:104540000181B5F90A00E849B1F918104843401251
:104550004442E648B0F910000444E448B0F91610AB
:10456000B0F91000081AB5F91C10484304EB602498
:1045700021B2DC484181B5F90C00DB49B1F90210E8
:1045800000FB01F4D948B0F9240004EB4024D748DB
:10459000B0F92A00D549B1F92410401AB5F91E1016
:1045A00000FB0144601200B2D1490880B5F90E0049
:1045B0004042CD49B1F9041000FB01F4C848B0F9FC
:1045C00000004142C948B0F9260001EB400004EB6D
:1045D0000024C648B0F92C10B0F92600081AB5F925
:1045E000201001FB0044601200B2C1494880B5F9B7
:1045F0001000BD49B1F9061000FB01F4601200B2D1
:10460000BB498880B5F91200B749B1F90810484391
:104610004012444220B2B649C880B5F91400B249EC
:10462000B1F90A104843441221B2B1480181B5F9E9
:104630001600AD49B1F90C10484340124442AB4852
:10464000B0F928000444A948B0F92E10B0F92800A8
:10465000081AB5F92210484304EB602421B2A4489B
:1046600041819F49B1F90000002801DB014600E0CB
:104670004142494209B29A4A11800020BDE8F081C6
:104680002DE9F04105460E4600249549B1F9000098
:10469000002801DB014600E0414209B2904A118046
:1046A0009248008800287DD1B5F900008F49B1F902
:1046B00012104843800084108C48B0F90C0004EBC1
:1046C00040248A49B1F91000FDF7D5FB8449B1F9BE
:1046D000001048434010404204448448B0F912009E
:1046E0008249B1F90C10401AB5F9181000FB0144C9
:1046F0007E49B1F91600FDF7BEFB07467B49B1F9CB
:104700001000FDF7B8FB381A7549B1F90010B5F97A
:10471000182051434843801240420444601200B2C2
:1047200070490880B5F902006F49B1F9101000FB1B
:1047300001F46E48B0F90E006949B1F9001000EBC0
:10474000610004EB40246949B1F91000FDF7B4FBA6
:104750006349B1F90010484304EB60046348B0F9C1
:104760001410B0F90E00081AB5F91A1000FB014434
:104770005E49B1F91600FDF79FFB07465B49B1F9A9
:104780001000FDF799FB381A5549B1F90010B5F939
:104790001A205143484304EBA024601200B251494F
:1047A000488000E0C1E0B5F904004F49B1F91210AA
:1047B000484380008410601200B24A498880B5F9ED
:1047C00006004949B1F914104843441220B2454942
:1047D000C880B5F908004449B1F91610484344129D
:1047E00021B240480181B5F90A003F49B1F91810DA
:1047F000484344123D48B0F9100004443B48B0F926
:104800001610B0F91000081AB5F91C10484304EB53
:10481000602421B233484181B5F90C003249B1F925
:10482000021000FB01F43148B0F9240004EB4024ED
:104830002E48B0F92A002D49B1F92410401AB5F9D3
:104840001E1000FB0144601200B229490880B5F92E
:104850000E002549B1F9041000FB01F42048B0F91D
:1048600000102248B0F9260001EB400004EB0024C0
:104870001E48B0F92C10B0F92600081AB5F920101E
:1048800001FB0044601200B219494880B5F91000DC
:104890001549B1F9061000FB01F4601200B2144989
:1048A0008880B5F912001049B1F908104843441244
:1048B00020B20F49C880B5F914000B49B1F90A10AC
:1048C0004843441221B20A480181B5F9160006494D
:1048D000B1F90C10484344120448B0F9280009E02B
:1048E000E2240010CA24001098240010001C0010BC
:1048F000D62400100444FE48B0F92E10B0F9280068
:10490000081AB5F92210484304EB602421B2F94893
:104910004181F949B1F90000002801DB014600E0BE
:10492000414209B2F44A11803AE1B5F90000F04978
:10493000B1F91210484380008410ED48B0F90C0022
:1049400004EB4024EA49B1F91000FDF794FAEA4972
:10495000B1F90010484304EB6004E548B0F91200D7
:10496000E349B1F90C10401AB5F9181000FB0144E5
:10497000DF49B1F91600FDF77EFA0746DC49B1F9C7
:104980001000FDF778FA381ADB49B1F90010B5F9D3
:1049900018205143484304EBA024601200B2D749C9
:1049A0000880B5F902004042D549B1F9101000FB6A
:1049B00001F4CF48B0F90E00CF49B1F90010A0EBD7
:1049C000610004EB4024CA49B1F91000FDF774FA04
:1049D000C949B1F900104843401040420444C4485A
:1049E000B0F91410B0F90E00081AB5F91A1000FB4E
:1049F0000144BF49B1F91600FDF75EFA0746BC490C
:104A0000B1F91000FDF758FA381ABB49B1F9001096
:104A1000B5F91A20514348438012404204446012C1
:104A200000B2B6494880B5F90400B549B1F9121091
:104A3000484380008410601200B2B0498880B5F904
:104A40000600AF49B1F9141048434012444220B265
:104A5000AA49C880B5F90800A949B1F91610484318
:104A6000441221B2A5480181B5F90A00A449B1F95F
:104A700018104843401244429D48B0F910000444C5
:104A80009B48B0F91610B0F91000081AB5F91C10BF
:104A9000484304EB602421B298484181B5F90C00E9
:104AA0009749B1F9021000FB01F49148B0F92400D4
:104AB00004EB40248E48B0F92A008D49B1F9241046
:104AC000401AB5F91E1000FB0144601200B289497A
:104AD0000880B5F90E0040428949B1F9041000FB85
:104AE00001F48548B0F9000041428148B0F9260040
:104AF00001EB400004EB00247D48B0F92C10B0F924
:104B00002600081AB5F9201001FB0044601200B21B
:104B100078494880B5F910007949B1F9061000FBD1
:104B200001F4601200B273498880B5F9120074492B
:104B3000B1F9081048434012444220B26D49C88080
:104B4000B5F914006E49B1F90A104843441221B274
:104B500068480181B5F916006949B1F90C1048435C
:104B6000401244426248B0F9280004446048B0F959
:104B70002E10B0F92800081AB5F92210484304EBAA
:104B8000602421B25B4841815B49B1F900000028F3
:104B900001DB014600E04142494209B2564A118018
:104BA0000020BDE8F08130B503460C460021504896
:104BB000008850BBB3F92800514DB5F9205000FBD7
:104BC00005F1481200B250834812404200B290846E
:104BD000B3F926004A4DB5F9225000FB05F1481201
:104BE00000B290834812404200B25084B3F92400CE
:104BF000434DB5F9245000FB05F14812404200B284
:104C0000D083481200B2108429E0B3F928003C4D4B
:104C1000B5F9205000FB05F14812404200B2508324
:104C2000481200B29084B3F92600354DB5F92250F0
:104C300000FB05F14812404200B29083481200B2D6
:104C40005084B3F924002E4DB5F9245000FB05F132
:104C5000481200B2D0834812404200B210840020B3
:104C600030BD10B500242249B1F91600FDF724F932
:104C70001F49B1F91210494200FB01F41C49B1F976
:104C80001600FDF7F8F81A49B1F91410494201FB72
:104C90000044601200B216498881B1F91600FDF790
:104CA000EAF81349B1F9121000FB01F41049B1F907
:104CB0001600FDF701F90E49B1F91410494201FB44
:104CC0000044601201B20A48C181C08A404201B268
:104CD000074801820146B1F91600FDF7EDF80449D5
:104CE000B1F92A10024AB2F91220891A0AE000002A
:104CF000001C0010D6240010E2240010CA2400106A
:104D00009824001000FB01F4FE49B1F91600FDF7EC
:104D1000B2F8FC49B1F92C20B1F91410511A01FB79
:104D20000044601200B2F7498884B1F91600FDF71B
:104D3000A2F8F449B1F91210F24AB2F92A20891AFC
:104D400000FB01F4EF49B1F91600FDF7B5F8ED49A4
:104D5000B1F92C20B1F91410511A01FB0044601272
:104D600001B2E848C184C08A4142E648C08D084487
:104D700001B2E4480185008818B90120E1490880A2
:104D800002E00020DF490880002010BD2DE9F0413D
:104D900007460E460024DC48B0F90440B4F5C96F5C
:104DA0000CDD4FF4496094FBF0F100FB1144B4F5C5
:104DB000C96F16DDA4F5496004B212E014F5C96F9D
:104DC0000FDA60424FF4496190FBF1F201FB1200EF
:104DD00004B2604204B214F5C96F02DA04F5496006
:104DE00004B22046FDF768F8B7F9001048434512B1
:104DF0002046FDF740F8B7F902104843A5EB6025BF
:104E0000C1480088284400B2BF4908802046FDF709
:104E100032F8B7F90010484345122046FDF74CF828
:104E2000B7F90210484305EB6025B748408828448D
:104E300000B2B549488008468088B988084400B265
:104E4000B14988800846B0F90440B4F5C96F0CDD5B
:104E50004FF4496094FBF0F100FB1144B4F5C96FC5
:104E600016DDA4F5496004B212E014F5C96F0FDA3B
:104E700060424FF4496190FBF1F201FB120004B271
:104E8000604204B214F5C96F02DA04F5496004B255
:104E900086B32046FDF710F8B6F9001048434512D6
:104EA0002046FCF7E8FFB6F902104843A5EB602561
:104EB00095480088284400B29349C8802046FCF7F2
:104EC000DAFFB6F90010484345122046FCF7F4FF1C
:104ED000B6F90210484305EB60258B48408828440A
:104EE00001B2894801818088B188084401B28648AE
:104EF000418107E0FFE7844801460A68C0F80620C0
:104F0000898841810020BDE8F0812DE9F04F87B00C
:104F10004FF000090025002400274FF6FF70029093
:104F20000020019001AA00217848006803F0B9F937
:104F300000BF7748006803F0F5FD0028F9D17548F7
:104F40000088062873D2DFE800F0039AF4F3F2F148
:104F50007148008878B96D48006803F05AFA01AAD0
:104F600000216B48006803F069FE01AA0021674830
:104F7000006803F096F96848008820F02000664930
:104F800008800846007810F0010F07D00846008816
:104F900020F001000880002002906FE05E48007859
:104FA00010F0080F08D05C48008820F008005A492B
:104FB00008800120029061E05748007810F0020F4D
:104FC0001BD056484088002810DD54484088401EB9
:104FD0000004000C5149488005D14F48008820F05A
:104FE00002004D4908800220029047E04A480088AC
:104FF00020F002004849088040E04748007810F05F
:10500000100F1CD045484088002811DD43484088D7
:10501000401E0004000C4149488005D13E480088EC
:1050200020F010003C4908800420029026E092E124
:105030003948008820F01000374908801EE03648C3
:10504000007810F0040F16D02E48008E28B92D4895
:10505000408E10B92B48808E30B101202D49088038
:1050600000202849488009E02B48008820F00400EF
:105070002949088002E00020274908806CE1FDF7FB
:1050800044FB0121FE20FCF79FFF0746B8B2072230
:1050900003A9FCF7CBFFBDF8100021490880BDF83B
:1050A0001020B8B2891CFCF7C1FFB8B205221D4917
:1050B000FCF7BCFFB8B219221B49FCF7B7FFB8B226
:1050C000FDF7C9FA0F4840881749B1F90010884226
:1050D00047DA0C484088401C0A4948801248B0F919
:1050E0000400498848431049B1F9001090FBF1F0E1
:1050F00000B20D4988800846B0F908000149498886
:10510000484317E0001C0010381C0010FC00001081
:10511000F400001048010010460100103A01001090
:1051200056240010E224001098240010FEE0ECE069
:1051300086E01DE0F649B1F9001090FBF1F000B2F5
:10514000F349088100204882C88108828882C88289
:105150000883F0480021C0F81E104184032002900B
:1051600005E00020EB4988800220EB490880F3E04D
:10517000EA48007810F01B0F04D1E848007810F0DE
:10518000040F03D1E348002101638186E3480078DE
:1051900010F0200F22D0FEF755FB20B1012805D0DA
:1051A000022818D107E00520029015E00520DA4911
:1051B0000880029010E006200290D848008820F075
:1051C0002000D64908800120D24908860021D14814
:1051D0004186818600E000BF00BFBDE0FEF7E8FD2C
:1051E000CC48008B30BBCB48408B18BBC948808B68
:1051F00000BBC848C08BE8B9C648008CD0B9C548C8
:10520000408CB8B9C3488088401C80B2C1498880AE
:10521000BF49B1F90010884209DD0320BE4908806A
:10522000BE48008820F00400BC49088007E0032045
:10523000029004E00020B7498880032002908BE0B0
:10524000FDF763FA0121FE20FCF7BEFE0746B8B267
:10525000072203A9FCF7EAFEBDF81000B049088058
:10526000BDF81020B8B2891CFCF7E0FEB8B20522E8
:10527000AC49FCF7DBFEB8B21922A549FCF7D6FE13
:10528000B8B2FDF7E8F9A3484088002835DDA14809
:105290004088401E9F4948809D48B0F904004988D5
:1052A00048439B49B1F9001090FBF1F000B29849D6
:1052B00088800846B0F908009649498848439449CF
:1052C000B1F9001090FBF1F000B291490881084655
:1052D000B0F912008F49498848438D49B1F900104F
:1052E00090FBF1F000B28A4948828A480021C0F858
:1052F0001E1041840320029006E004F003F9854962
:10530000886004208449088026E004F0FBF8814985
:105310008968401A7E49B1F9301001EB8101B0EB88
:10532000410F02D900207C49088015E0FEF709FAF8
:105330007A48008820F020007849088006200290F2
:105340000120744908860021724841868186022026
:105350007149088000BF00BF00BF029807287DD2B6
:10536000DFE800F00459F3F2F1F0D5004FF6FE70DB
:10537000ADF80C0000200590ADF818000120ADF844
:105380000E0069484088ADF8120067480088401E4A
:1053900080B2ADF810004FF6FF7000231A46624944
:1053A000891D009003A8FDF7F9FF00250CE04FF6DA
:1053B000FF700090BDF8100000231A465A49891D5D
:1053C000FDF7F0FE681C85B2BDF81200401EA84231
:1053D000EDDC5648006803F01CF80020FDF7A7FF3D
:1053E0004FF0000B002000905148FBF75BF883461C
:1053F000FE208BF8000071208BF8020002208BF851
:1054000001005846FBF754F880B2009048480099D4
:10541000FBF7A2FB26E34548006802F0FAFF4FF4D1
:10542000C0724FF400711420FBF739FE4FF4C072C4
:105430004FF400711520FBF732FEFDF766F90121EC
:10544000FE20FCF7C1FD0746B8B2072203A9FCF70E
:10545000EDFDBDF810003249088000E0EFE3BDF833
:105460001020B8B2891CFCF7E1FDB8B205222D4925
:10547000FCF7DCFDB8B219222549FCF7D7FDB8B21C
:10548000FDF7E9F80121FF20FCF79EFD0746B8B2C1
:10549000072203A9FCF7CAFD1E48D0F81210059197
:1054A000C08AADF81800BDF81090B8B24A4621493C
:1054B000FCF7BCFD49461F48FEF753FE80211A4801
:1054C000001D05F06BF8184B1B1D164A1A491B48A6
:1054D000FDF7CDFB144A121D49461648FFF763FB42
:1054E0001148001DFEF7FAF8002546E00E48001DA1
:1054F00030F8150006B21248704346150848801C63
:1055000030F815000644002E20DA00201FE0E3E307
:1055100098240010001C00104801001046010010E3
:1055200056240010E22400107C1B0010FC00001028
:105530002A010010FC1A0010D6240010CA24001002
:105540001D390C008FE237E03DE134E0304606467D
:10555000B6F5806F02DB40F2FF3000E030460646D1
:10556000F74820F815604FF4C071F64800884219DA
:10557000F34820F81210681C85B2F2480088A8424F
:10558000B4DCF04800884FF6FF7101EA4000ADF846
:1055900010000120ADF80E00ADF81200EA480088B6
:1055A000EA4B0022E649009003A8FDF7F7FEB8B2E7
:1055B000FDF751F82EE700BFFDF7A7F8E44908888A
:1055C0000121FCF701FD0746E248006802F021FFD7
:1055D000B8B2072203A9FCF729FDBDF81090BDF869
:1055E0001000401E4FF6FF7101EA4000ADF81000B8
:1055F000B8B24A46D249FCF719FD002507E001215F
:1056000005EB0902CE4820F81210681C85B2A9F1FA
:105610000100A842F3DC4FF6FF7000231A46C84988
:10562000891C009003A8FDF7B9FE002594E04FF017
:10563000000BC34A02EB4901B8B24A46FCF7F6FC3C
:10564000002431E0BE48611C30F81110601C00EBF2
:105650000902BB4830F81200081A00EBC00101EB48
:105660008010B749091F898890FBF1F8B8F1000F45
:1056700002DAC8F1000000E040468046B8F1000FB1
:1056800001DC012000E040468046B8F5806F01DB78
:10569000002000E04046804604EB0900401EAE4A70
:1056A00022F81080601C84B2A9F10100A042C9DC7C
:1056B0004FF0010B2EE000241AE0601C00EB090102
:1056C0009F4830F81120611C30F81100101A00FBBF
:1056D0000BF09B49091F898890FBF1F29848611CE7
:1056E00030F8110016189C4921F81460601C84B22F
:1056F000A9F10100A042E0DC4FF6FF700090BDF878
:10570000100000231A469449FDF74CFD0BF10100EF
:105710001FFA80FB8A48001F80885845CBDCA9F11E
:1057200001004200864800EB4900811C8A4804F0D1
:10573000BEFE4FF6FF700090BDF8100000231A4621
:105740008549FDF72FFD4FEA49027D4800EB4901ED
:1057500004F0ADFE681C85B2BDF80E00401EA842E4
:105760003FF765AFBDF81000FDF7E1FD01AA00218C
:105770007848006802F095FD002105A8FFF706FBB8
:105780007448006802F045FE029802281AD14FF0D2
:10579000000B002000907148FAF784FE8346FE203B
:1057A0008BF8000071208BF8020002208BF80100BA
:1057B0005846FAF77DFE80B2009068480099FBF7E2
:1057C000CBF900BFD8E3FEF712FC6248006802F094
:1057D00020FE03F097FE82460121FF20FCF7F4FB38
:1057E0000746B8B2072203A9FCF720FC5648D0F8B8
:1057F00012100591C08AADF81800BDF81090B8B22B
:105800004A465549FCF712FC49465348FEF7A9FCA5
:1058100080214B4804F0C2FE494B514A4B49514844
:10582000FDF725FA464A49464B48FFF7BCF944487C
:10583000FDF754FF002525E0414830F8150006B279
:105840004948704346153F48801C30F8150006440F
:10585000002E01DA002000E030460646B6F5806FE3
:1058600002DB40F2FF3000E030460646344820F8C4
:1058700015600121334800884219314820F8121080
:10588000681C85B22F480088A842D5DC2D480088C6
:105890004FF6FF7101EA4000ADF810002A48008879
:1058A0002A4B00222649009003A8FDF777FD012529
:1058B000BAE0B8B24A462849FCF7B8FB4946264840
:1058C000FEF74FFC002408E000211E480088021962
:1058D0001B4820F81210601C84B21A480088A042AD
:1058E000F2DC18480188164800EB41031C4A1749AE
:1058F0001C48FDF7BCF913480188114800EB410230
:1059000049461548FFF74FF90E490A880C4901EB43
:105910004200FDF7E3FE00246CE00A48008801190C
:10592000074830F8110006B20F4870434615054885
:10593000801C30F814000644002E17DA002016E010
:10594000801B001056240010001C0010D6240010EC
:105950003A010010FC000010FC1A00103001001089
:10596000E2240010CA2400101D390C0030460646FF
:10597000B6F5806F02DB40F2FF3000E030460646AD
:10598000F94800880219F94820F8126030F814101C
:10599000F54800880219F54830F81200081A00EBA3
:1059A000C00101EB8018B8F1000F02DAC8F1000065
:1059B00000E040468046B8F1000F01DC012000E025
:1059C00040468046B8F5806F01DB002000E040468D
:1059D0008046E54909882144E54A22F81180E248D9
:1059E00000880119E14830F81100114621F814002F
:1059F000601C84B2DC480088A0428EDCDD48008850
:105A00000090BDF81000DC4B0022D949FDF7CAFB1D
:105A1000D54800884200D4480388D44800EB4301AD
:105A200004F045FD681C85B2BDF81200A8423FF79E
:105A300040AFB8B2FCF70FFEFFF713F901AA00213F
:105A4000CE48006802F02DFCCA492431A1F11200B1
:105A5000FFF79CF9C948006802F0DBFC03F052FD37
:105A6000A0EB0A0A88E2C548006802F0D2FC03F005
:105A700049FD82460121FF20FCF7A6FA0746B8B28D
:105A8000072203A9FCF7D2FABA48D0F81210059100
:105A9000C08AADF81800BDF81090B8B24A46B449B3
:105AA000FCF7C4FA4946B248FEF75BFB8021AF48D9
:105AB00004F074FDAD4BB24AAF49B248FDF7D7F8D8
:105AC000AA4A4946AA48FFF76EF8A848FDF706FE1D
:105AD000002525E0A54830F8150006B2AA48704315
